:1000000031C0D4C263C2D2C2D1C2D0C2CFC2CEC26A
:100010009CC1CCC216C141C16CC1E7C0C7C2C6C237
:10002000C5C2C4C2C3C2C2C2C1C2C0C2BFC2BEC2B4
:10003000BDC2BCC23F043F06803F063F080005B674
:100040003F083F0A0005B83F0A3F0C0005BA3F0CC5
:100050003F0E0005BC3F0E3F0F803F0F3F10803F1B
:10006000003F048011241FBECFEFCDBFDFE3DEBF12
:10007000E4E3F0E040E017C0B591A59135912591FA
:10008000059107FD0CC095918591EF01F92FE82F9F
:1000900005900D92A217B307D9F7FE0104C01D9277
:1000A000A217B307E1F7E436F40731F703D000C035
:0400B000F894FFCFF2
:1000B400CF93DF93CDB7DEB72697CDBFDEBF1982CE
:1000C4001A821B821C821D821E822DD289EC92E030
:1000D40059D266D24CD281E492E04FD23CD241D282
:1000E400789482E08093060484E080930504E0E041
:1000F400FAE086A197A19695879580A791A741E0FC
:1001040025E034E062E00F2EF6E0EF2EF4E0FF2E5F
:10011400F02D54E08C81882321F0813009F44DC006
:100124005FC080910F3F882379F180A591A500914C
:10013400003F1091013F0A978017910728F580A589
:1001440091A50091003F1091013F0A9608171907E5
:10015400D8F486A197A10091023F1091033F0A971A
:100164008017910788F486A197A10091023F10910E
:10017400033F0A960817190738F410920F3F898134
:100184009A81019689839A8389819A81C39740F1E0
:100194008B81882319F0813039F00BC04B83D9014E
:1001A4006C93D7015C9305C01B82D7016C93D90172
:1001B4005C9319821A824C8313C080910E3F813064
:1001C40029F48D819E8101968D839E838D819E81EC
:1001D4008938934128F01C821D821E8219821A825A
:0601E40010920E3F97CFC0
:1001EA001F920F920FB60F9211242F933F934F93A2
:1001FA005F936F937F938F939F93AF93BF93EF9385
:10020A00FF93E091043FF091053F309709F009957B
:10021A0081E08093460AFF91EF91BF91AF919F9140
:10022A008F917F916F915F914F913F912F910F9095
:08023A000FBE0F901F901895F4
:100242001F920F920FB60F9211242F933F934F9349
:100252005F936F937F938F939F93AF93BF93EF932C
:10026200FF93E0910C3FF0910D3F309709F0099513
:1002720080E180930B0AFF91EF91BF91AF919F9123
:100282008F917F916F915F914F913F912F910F903D
:080292000FBE0F901F9018959C
:10029A001F920F920FB60F9211242F933F934F93F1
:1002AA005F936F937F938F939F93AF93BF93EF93D4
:1002BA00FF93E0910A3FF0910B3F309709F00995BF
:1002CA0080E280930B0AFF91EF91BF91AF919F91CA
:1002DA008F917F916F915F914F913F912F910F90E5
:0802EA000FBE0F901F90189544
:1002F2001F920F920FB60F9211242F933F934F9399
:100302005F936F937F938F939F93AF93BF93EF937B
:10031200FF93E091083FF091093F309709F009956A
:1003220080E480930B0AFF91EF91BF91AF919F916F
:100332008F917F916F915F914F913F912F910F908C
:080342000FBE0F901F901895EB
:10034A001F920F920FB60F9211242F933F934F9340
:10035A005F936F937F938F939F93AF93BF93EF9323
:10036A00FF93E091063FF091073F309709F0099516
:10037A0081E080930B0AFF91EF91BF91AF919F911A
:10038A008F917F916F915F914F913F912F910F9034
:08039A000FBE0F901F90189593
:1003A200E0E0FAE083EF91E080A791A712A613A6FE
:1003B20014A615A610A211A283E1818381E0828393
:1003C20013821482158216821782868711861286FC
:1003D200138627EE33E026A337A31786808380E0B7
:0203E20008957C
:1003E40040E068ED88E790E0D7D040E068ED8CE726
:1003F40090E0D2D040E068ED80E790E0CDD047E0D7
:1004040068ED81E690E0C8D040E068ED80E690E0D9
:10041400C3D040E068ED82E690E0BED080E008956D
:10042400E0E8F1E080E1828313821482158283E0A4
:10043400828B138A148A158A168A178A108E118E53
:10044400128E138E148E1286138612A213A280E0CB
:02045400089509
:100456005FD0E0E0F4E086E880831482108A118A97
:10046600128A138A148A158A168A178AE0E0F2E03D
:0C0476001082118281E0828313820895BD
:10048200E0E4FAE0828593858093023F9093033FF4
:10049200848595858093003F9093013F81E080930E
:0604A2000F3F60D0089539
:1004A800E0E4FAE0148615861286138685E08183D7
:1004B800108691E1948391E095831682118680835A
:0404C80080E0089533
:1004CC001F920F920FB60F9211248F9381E080939D
:0E04DC008A008F910F900FBE0F901F90189501
:1004EA0040E468ED80E191E054D0E0E1F1E012826D
:0604FA00138280E008956A
:1005000040E068ED80E890E049D0E0E8F0E0118656
:06051000108680E0089552
:10051600E0E1F4E0808188608193E83184E0F807C7
:04052600C9F7089574
:10052A0095DFE9DF0ED059DF05D077DF35DFD8DF79
:04053A00B6DF08958B
:0E053E0040E068ED80E590E02AD080E008956E
:0E054C0040E068ED80E091E023D080E008956B
:0C055A00E0E4FAE085818160858308956B
:0C056600E0E4FAE086818E7F8683089531
:0C057200E0E0FAE083858E7F8387089527
:0A057E008093043F9093053F089519
:0A0588008093063F9093073F08950B
:0A05920081E080930E3FECDF089536
:08059C00FC0164BF40830895D7
:0805A40081E780930A0A089523
:0205AC0029CD57
:0205AE000895AE
:0205B0000895AC
:0205B2000895AA
:0205B4000895A8
:0205B600DA0267
:0205B800D90266
:0205BA00D80265
:0205BC00D70264
:02000004008278
:090000000040010000C4070000EB
:00000001FF
