:100000002FC06EC20EC26CC26BC26AC269C268C225
:100010005AC166C2D4C0FFC02AC1A5C061C260C2B5
:100020005FC25EC25DC25CC25BC25AC259C258C2E4
:1000300057C256C23F003F02803F023F040004EA1D
:100040003F043F060004EC3F063F080004EE3F0873
:100050003F0A0004F03F0A3F0B803F0B3F0C80003B
:1000600011241FBECFEFCDBFDFE3DEBFE4E3F0E03E
:1000700040E017C0B591A59135912591059107FDF7
:100080000CC095918591EF01F92FE82F05900D9205
:10009000A217B307D9F7FE0104C01D92A217B30738
:1000A000E1F7EF35F40731F703D000C0F894FFCF44
:1000B000CF93DF93CDB7DEB72697CDBFDEBF1982D2
:1000C0001A821B821C821D821E82DAD183E692E094
:1000D000F5D102D2EDD1789482E08093060484E0D9
:1000E0008093050421E0A5E0B4E042E0E6E0F4E01E
:1000F00034E08C81882319F08130F9F031C0169BEF
:1001000007C010920B3F89819A81019689839A8357
:1001100089819A81C39720F18B81882319F08130DE
:1001200029F007C02B834C93308303C01B8240838C
:100130003C9319821A822C8313C080910A3F81302C
:1001400029F48D819E8101968D839E838D819E8170
:10015000853C994028F01C821D821E8219821A82D9
:0601600010920A3FC6CF19
:100166001F920F920FB60F9211242F933F934F9326
:100176005F936F937F938F939F93AF93BF93EF9309
:10018600FF93E091003FF091013F309709F0099508
:1001960081E08093460AFF91EF91BF91AF919F91C5
:1001A6008F917F916F915F914F913F912F910F901A
:0801B6000FBE0F901F90189579
:1001BE001F920F920FB60F9211242F933F934F93CE
:1001CE005F936F937F938F939F93AF93BF93EF93B1
:1001DE00FF93E091083FF091093F309709F00995A0
:1001EE0080E180930B0AFF91EF91BF91AF919F91A8
:1001FE008F917F916F915F914F913F912F910F90C2
:08020E000FBE0F901F90189520
:100216001F920F920FB60F9211242F933F934F9375
:100226005F936F937F938F939F93AF93BF93EF9358
:10023600FF93E091063FF091073F309709F009954B
:1002460080E280930B0AFF91EF91BF91AF919F914E
:100256008F917F916F915F914F913F912F910F9069
:080266000FBE0F901F901895C8
:10026E001F920F920FB60F9211242F933F934F931D
:10027E005F936F937F938F939F93AF93BF93EF9300
:10028E00FF93E091043FF091053F309709F00995F7
:10029E0080E480930B0AFF91EF91BF91AF919F91F4
:1002AE008F917F916F915F914F913F912F910F9011
:0802BE000FBE0F901F90189570
:1002C6001F920F920FB60F9211242F933F934F93C5
:1002D6005F936F937F938F939F93AF93BF93EF93A8
:1002E600FF93E091023FF091033F309709F00995A3
:1002F60081E080930B0AFF91EF91BF91AF919F919F
:100306008F917F916F915F914F913F912F910F90B8
:080316000FBE0F901F90189517
:10031E00E0E0FAE083EF91E080A791A712A613A682
:10032E0014A615A610A211A283E1818381E0828317
:10033E001382148215821682178286871186128680
:10034E00138627EE33E026A337A31786808380E03B
:02035E00089500
:1003600040E068ED88E790E0B3D040E068ED8CE7CE
:1003700090E0AED040E068ED80E790E0A9D047E0A3
:1003800068ED81E690E0A4D040E068ED80E690E082
:100390009FD040E068ED82E690E09AD080E008953A
:1003A000E0E8F1E080E1828313821482158283E029
:1003B000828B138A148A158A168A178A108E118ED8
:1003C000128E138E148E1286138612A213A280E050
:0203D00008958E
:1003D2004CD0E0E0F4E086E880831482108A118A2F
:1003E200128A138A148A158A168A178AE0E0F2E0C2
:0C03F2001082118281E082831382089542
:1003FE00E0E4FAE0148615861286138685E0818382
:10040E00108691E1948391E0958316821186808304
:04041E0080E00895DD
:100422001F920F920FB60F9211248F9381E0809347
:0E0432008A008F910F900FBE0F901F901895AB
:1004400040E468ED80E191E043D0E0E1F1E0128228
:06045000138280E0089514
:1004560040E068ED80E890E038D0E0E8F0E0118612
:06046600108680E00895FD
:10046C00E0E1F4E0808188608193E83184E0F80772
:04047C00C9F708951F
:10048000A8DFE9DF0ED06CDF05D08ADF48DFD8DFD8
:04049000B6DF089536
:0E04940040E068ED80E590E019D080E008952A
:0E04A20040E068ED80E091E012D080E0089527
:0C04B000E0E0FAE083858E7F83870895EA
:0A04BC008093023F9093033F0895E0
:0A04C60081E080930A3FF1DF089502
:0804D000FC0164BF40830895A4
:0804D80081E780930A0A0895F0
:0204E0008FCDBE
:0204E20008957B
:0204E400089579
:0204E600089577
:0204E800089575
:0204EA0074029A
:0204EC00730299
:0204EE00720298
:0204F000710297
:02000004008278
:090000000040010000C4070000EB
:00000001FF
